{
  "contractName": "Voting",
  "abi": [
    {
      "inputs": [],
      "stateMutability": "nonpayable",
      "type": "constructor"
    },
    {
      "anonymous": false,
      "inputs": [],
      "name": "ElectionEnded",
      "type": "event"
    },
    {
      "anonymous": false,
      "inputs": [],
      "name": "ElectionStarted",
      "type": "event"
    },
    {
      "anonymous": false,
      "inputs": [
        {
          "indexed": true,
          "internalType": "address",
          "name": "voter",
          "type": "address"
        },
        {
          "indexed": false,
          "internalType": "uint256",
          "name": "candidateId",
          "type": "uint256"
        }
      ],
      "name": "VoteCast",
      "type": "event"
    },
    {
      "inputs": [
        {
          "internalType": "uint256",
          "name": "",
          "type": "uint256"
        }
      ],
      "name": "candidates",
      "outputs": [
        {
          "internalType": "uint256",
          "name": "id",
          "type": "uint256"
        },
        {
          "internalType": "string",
          "name": "name",
          "type": "string"
        },
        {
          "internalType": "uint256",
          "name": "voteCount",
          "type": "uint256"
        }
      ],
      "stateMutability": "view",
      "type": "function",
      "constant": true
    },
    {
      "inputs": [],
      "name": "candidatesCount",
      "outputs": [
        {
          "internalType": "uint256",
          "name": "",
          "type": "uint256"
        }
      ],
      "stateMutability": "view",
      "type": "function",
      "constant": true
    },
    {
      "inputs": [],
      "name": "status",
      "outputs": [
        {
          "internalType": "enum Voting.ElectionStatus",
          "name": "",
          "type": "uint8"
        }
      ],
      "stateMutability": "view",
      "type": "function",
      "constant": true
    },
    {
      "inputs": [
        {
          "internalType": "address",
          "name": "",
          "type": "address"
        }
      ],
      "name": "voters",
      "outputs": [
        {
          "internalType": "bool",
          "name": "",
          "type": "bool"
        }
      ],
      "stateMutability": "view",
      "type": "function",
      "constant": true
    },
    {
      "inputs": [],
      "name": "startElection",
      "outputs": [],
      "stateMutability": "nonpayable",
      "type": "function"
    },
    {
      "inputs": [],
      "name": "endElection",
      "outputs": [],
      "stateMutability": "nonpayable",
      "type": "function"
    },
    {
      "inputs": [
        {
          "internalType": "uint256",
          "name": "_candidateId",
          "type": "uint256"
        }
      ],
      "name": "vote",
      "outputs": [],
      "stateMutability": "nonpayable",
      "type": "function"
    },
    {
      "inputs": [],
      "name": "getResults",
      "outputs": [
        {
          "internalType": "string[]",
          "name": "",
          "type": "string[]"
        },
        {
          "internalType": "uint256[]",
          "name": "",
          "type": "uint256[]"
        }
      ],
      "stateMutability": "view",
      "type": "function",
      "constant": true
    }
  ],
  "bytecode": "0x60806040523480156200001157600080fd5b506003805460ff19169055604080518082019091526008815267434f4e475245535360c01b6020820152620000469062000096565b6040805180820190915260038152620424a560ec1b60208201526200006b9062000096565b6040805180820190915260038152624a445360e81b6020820152620000909062000096565b62000214565b60028054906000620000a883620001ec565b90915550506040805160608101825260025480825260208083018581526000848601819052928352600180835294909220835181559151805193949293620000f893850192919091019062000109565b506040820151816002015590505050565b8280546200011790620001af565b90600052602060002090601f0160209004810192826200013b576000855562000186565b82601f106200015657805160ff191683800117855562000186565b8280016001018555821562000186579182015b828111156200018657825182559160200191906001019062000169565b506200019492915062000198565b5090565b5b8082111562000194576000815560010162000199565b600281046001821680620001c457607f821691505b60208210811415620001e657634e487b7160e01b600052602260045260246000fd5b50919050565b60006000198214156200020d57634e487b7160e01b81526011600452602481fd5b5060010190565b61096d80620002246000396000f3fe608060405234801561001057600080fd5b50600436106100885760003560e01c80634717f97c1161005b5780634717f97c146100f757806359f784681461010d57806362d73eb814610115578063a3ec138d1461011d57610088565b80630121b93f1461008d578063200d2ed2146100a25780632d35a8a2146100c05780633477ee2e146100d5575b600080fd5b6100a061009b36600461065d565b61013d565b005b6100aa610266565b6040516100b79190610763565b60405180910390f35b6100c861026f565b6040516100b79190610882565b6100e86100e336600461065d565b610275565b6040516100b79392919061088b565b6100ff61031f565b6040516100b79291906106c0565b6100a0610522565b6100a061059e565b61013061012b36600461062f565b61061a565b6040516100b79190610758565b600160035460ff16600281111561016457634e487b7160e01b600052602160045260246000fd5b1461018a5760405162461bcd60e51b815260040161018190610825565b60405180910390fd5b3360009081526020819052604090205460ff16156101ba5760405162461bcd60e51b815260040161018190610852565b6000811180156101cc57506002548111155b6101e85760405162461bcd60e51b8152600401610181906107cc565b33600090815260208181526040808320805460ff19166001908117909155848452909152812060020180549161021d83610906565b9190505550336001600160a01b03167fa36cc2bebb74db33e9f88110a07ef56e1b31b24b4c4f51b54b1664266e29f45b8260405161025b9190610882565b60405180910390a250565b60035460ff1681565b60025481565b600160208190526000918252604090912080549181018054610296906108cb565b80601f01602080910402602001604051908101604052809291908181526020018280546102c2906108cb565b801561030f5780601f106102e45761010080835404028352916020019161030f565b820191906000526020600020905b8154815290600101906020018083116102f257829003601f168201915b5050505050908060020154905083565b606080600060025467ffffffffffffffff81111561034d57634e487b7160e01b600052604160045260246000fd5b60405190808252806020026020018201604052801561038057816020015b606081526020019060019003908161036b5790505b509050600060025467ffffffffffffffff8111156103ae57634e487b7160e01b600052604160045260246000fd5b6040519080825280602002602001820160405280156103d7578160200160208202803683370190505b50905060015b6002548111610518576000818152600160208190526040909120018054610403906108cb565b80601f016020809104026020016040519081016040528092919081815260200182805461042f906108cb565b801561047c5780601f106104515761010080835404028352916020019161047c565b820191906000526020600020905b81548152906001019060200180831161045f57829003601f168201915b50505050508360018361048f91906108b4565b815181106104ad57634e487b7160e01b600052603260045260246000fd5b60200260200101819052506001600082815260200190815260200160002060020154826001836104dd91906108b4565b815181106104fb57634e487b7160e01b600052603260045260246000fd5b60209081029190910101528061051081610906565b9150506103dd565b5090925090509091565b600160035460ff16600281111561054957634e487b7160e01b600052602160045260246000fd5b146105665760405162461bcd60e51b8152600401610181906107f7565b6003805460ff191660021790556040517f66ec723071e4bb646f7b35d31bc2dee8510979bd8c180edd0690d4f5e802f1e490600090a1565b600060035460ff1660028111156105c557634e487b7160e01b600052602160045260246000fd5b146105e25760405162461bcd60e51b81526004016101819061078b565b6003805460ff191660011790556040517fc475c26aa25ed8e85a7faa790e5f63b5d7ee1025f12821f4c9bfddd36ab4d11290600090a1565b60006020819052908152604090205460ff1681565b600060208284031215610640578081fd5b81356001600160a01b0381168114610656578182fd5b9392505050565b60006020828403121561066e578081fd5b5035919050565b60008151808452815b8181101561069a5760208185018101518683018201520161067e565b818111156106ab5782602083870101525b50601f01601f19169290920160200192915050565b60006040820160408352808551808352606085019150602092506060838202860101838801855b8381101561071557605f19888403018552610703838351610675565b948601949250908501906001016106e7565b505085810384870152865180825290840192509050858301845b8281101561074b5781518452928401929084019060010161072f565b5091979650505050505050565b901515815260200190565b602081016003831061078557634e487b7160e01b600052602160045260246000fd5b91905290565b60208082526021908201527f456c656374696f6e20616c72656164792073746172746564206f7220656e64656040820152601960fa1b606082015260800190565b602080825260119082015270496e76616c69642063616e64696461746560781b604082015260600190565b602080825260149082015273115b1958dd1a5bdb881b9bdd081cdd185c9d195960621b604082015260600190565b602080825260139082015272456c656374696f6e206e6f742061637469766560681b604082015260600190565b602080825260169082015275165bdd481a185d9948185b1c9958591e481d9bdd195960521b604082015260600190565b90815260200190565b6000848252606060208301526108a46060830185610675565b9050826040830152949350505050565b6000828210156108c6576108c6610921565b500390565b6002810460018216806108df57607f821691505b6020821081141561090057634e487b7160e01b600052602260045260246000fd5b50919050565b600060001982141561091a5761091a610921565b5060010190565b634e487b7160e01b600052601160045260246000fdfea26469706673582212202b5e51c34a4ff978c9378ed7e753dedc92ea1b4d73e2c4bb5bf25b1f7b4f61b964736f6c63430008000033",
  "immutableReferences": {},
  "source": "// SPDX-License-Identifier: MIT\r\npragma solidity ^0.8.0;\r\n\r\ncontract Voting {\r\n    // Structure to hold candidate details\r\n    struct Candidate {\r\n        uint id;\r\n        string name;\r\n        uint voteCount;\r\n    }\r\n\r\n    // Store accounts that have voted\r\n    mapping(address => bool) public voters;\r\n    \r\n    // Store Candidates\r\n    mapping(uint => Candidate) public candidates;\r\n    \r\n    // Candidates Count\r\n    uint public candidatesCount;\r\n    \r\n    // Election status\r\n    enum ElectionStatus { NotStarted, Started, Ended }\r\n    ElectionStatus public status;\r\n\r\n    // Events\r\n    event ElectionStarted();\r\n    event ElectionEnded();\r\n    event VoteCast(address indexed voter, uint candidateId);\r\n\r\n    constructor() {\r\n        status = ElectionStatus.NotStarted;\r\n        addCandidate(\"CONGRESS\");\r\n        addCandidate(\"BJP\");\r\n        addCandidate(\"JDS\");\r\n    }\r\n\r\n    function addCandidate(string memory _name) private {\r\n        candidatesCount++;\r\n        candidates[candidatesCount] = Candidate(candidatesCount, _name, 0);\r\n    }\r\n\r\n    function startElection() public {\r\n        require(status == ElectionStatus.NotStarted, \"Election already started or ended\");\r\n        status = ElectionStatus.Started;\r\n        emit ElectionStarted();\r\n    }\r\n\r\n    function endElection() public {\r\n        require(status == ElectionStatus.Started, \"Election not started\");\r\n        status = ElectionStatus.Ended;\r\n        emit ElectionEnded();\r\n    }\r\n\r\n    function vote(uint _candidateId) public {\r\n        require(status == ElectionStatus.Started, \"Election not active\");\r\n        require(!voters[msg.sender], \"You have already voted\");\r\n        require(_candidateId > 0 && _candidateId <= candidatesCount, \"Invalid candidate\");\r\n\r\n        voters[msg.sender] = true;\r\n        candidates[_candidateId].voteCount++;\r\n        \r\n        emit VoteCast(msg.sender, _candidateId);\r\n    }\r\n\r\n    function getResults() public view returns (string[] memory, uint[] memory) {\r\n        string[] memory names = new string[](candidatesCount);\r\n        uint[] memory votes = new uint[](candidatesCount);\r\n        \r\n        for (uint i = 1; i <= candidatesCount; i++) {\r\n            names[i-1] = candidates[i].name;\r\n            votes[i-1] = candidates[i].voteCount;\r\n        }\r\n        \r\n        return (names, votes);\r\n    }\r\n}",
  "sourcePath": "C:\\Users\\Syed khizer\\OneDrive\\Desktop\\workingproj\\Workingproject\\contracts\\Voting.sol",
  "compiler": {
    "name": "solc",
    "version": "0.8.0+commit.c7dfd78e.Emscripten.clang"
  },
  "schemaVersion": "3.4.16",
  "updatedAt": "2025-05-11T05:33:11.303Z",
  "networkType": "ethereum",
  "devdoc": {
    "kind": "dev",
    "methods": {},
    "version": 1
  },
  "userdoc": {
    "kind": "user",
    "methods": {},
    "version": 1
  }
}